:1000000003C1000028C1000026C1000024C1000077
:1000100022C1000020C100001EC100001CC1000060
:100020001AC100000C94910A16C1000014C100000E
:1000300012C1000096C700000EC100000CC10000F4
:100040000AC1000008C1000006C1000004C1000090
:1000500002C1000000C10000FEC00000FCC00000A2
:10006000FAC00000F8C0000028052E05310534054F
:1000700037053A053D0540054305460549054C054C
:100080005374657665204C00000000000000001FDE
:100090001F1F1F1F1F1F214C31362056382063643D
:1000A00065666761623E63626167666564630021DD
:1000B00054323430204C38206120676166616561BC
:1000C000646120632B61646165616661203E6161EA
:1000D0003E626163236164612063236164616561E1
:1000E0006634004F3620543430204C382064233C92
:1000F000623C66233C64233C66233C6264236623A3
:100100005438302063233C622D3C66233C63233CFF
:1001100066233C622D6323385431383020642362D7
:100120003C6623642366233E626423662363236262
:100130002D3C6623632366233E622D6323382063B0
:100140003E63233C63233E63233C623E63233C6364
:10015000233E6323633E63233C63233E63233C626D
:100160003E63233C63233E6323633E63233C63235C
:100170003E63233C622D3E63233C63233E63236343
:100180003E63233C63233E63233C622D3E63233C5A
:1001900063233E6323633E63233C63233E63236602
:1001A0003E63233C63233E6323633E63233C63231C
:1001B0003E6323663E63233C63233E6323633E63C7
:1001C000233C63233E632366233E63233C63233E39
:1001D0006323633E63233C63233E632366233E63C2
:1001E000233C63233E6323642362622D62642362A3
:1001F000662364236323622D61622D6323622D666F
:10020000236423003A0B3B0B11241FBECFEFD8E031
:10021000DEBFCDBF11E0A0E0B1E0ECE6FEE102C040
:1002200005900D92A033B107D9F711E0A0E3B1E03A
:1002300001C01D92AF38B107E1F712E0C6E0D2E08D
:1002400004C02297FE010E94260FC430D107C9F7CF
:100250004DD10C942A0FD4CECF93DF93EC01DB0168
:10026000FA0140E050E0288139818D919C911197ED
:100270002817390718F411963C932E932881398159
:10028000808191818217930710F4318320834F5F1F
:100290005F4F2296129632964530510521F7DF9135
:1002A000CF910895A8E0B0E0E8E5F1E00C94ED0E00
:1002B0009A8389837C836B835E834D8322243324DA
:1002C000210166247724430118861F8280E3A82E2B
:1002D00088EFB82E8FEFC82E8FEFD82EEB81FC81E0
:1002E0002F813885E20FF31F20813181E981FA8166
:1002F0004F815885E40FF51F80819181821B930BFC
:10030000ED81FE81E40FF51F60817181621B730B2B
:10031000DC01E4E6F0E0AE9FC001AF9F900DBE9F10
:10032000900D11240E94890E7B0100E010E0C601AF
:10033000B501A80197010E945E0E260E371E481EC9
:10034000591E6E0C7F1C801E911E2F8138852E5FDA
:100350003F4F38872F8388EE93E0A0E0B0E0A80EEF
:10036000B91ECA1EDB1E2A30310509F0B7CFC20103
:10037000B101A40193010E94D20ECA01B9012896CD
:10038000E2E10C94090F6AE070E00E949D0ECB013F
:1003900062E370E0681B790BC2960C94740AA0E0CB
:1003A000B0E0E5EDF1E00C94F70E8C016B017A0101
:1003B000CCEEDFEFC80161E00E943E0BC801B60140
:1003C000A7014ADFC832D10528F088E290E068ED45
:1003D0007FEF04C088ED9FEF68E270E00E94740A2E
:1003E00084E190E00E94D00A2196CC33D10511F728
:1003F00080E090E060E070E00E94740ACDB7DEB764
:10040000E8E00C94130FA0E0B0E0E9E0F2E00C9417
:10041000F70E6C017B018A01C0E0D0E0F701EC0F20
:10042000FD1F40815181F601EC0FFD1F20813181BC
:10043000241B350BC90163E0880F991F6A95E1F70A
:10044000F801EC0FFD1F60817181641B750B820F39
:10045000931F0E949D0ECB016930710514F088E056
:1004600090E0FC0197FF02C0E0E0F0E0E65FFE4FA5
:10047000808153D72296CA30D10581F6CDB7DEB739
:10048000E8E00C94130F0F931F9308E810E0C801E5
:1004900060E069D7C801019661E065D7C80102969E
:1004A00062E061D7C801039663E05DD7C801049696
:1004B00064E059D7C801059665E055D7C80106968E
:1004C00066E051D75FD61F910F91089580ED97E0B8
:1004D0000E94730BD8DF80E890E00CD780E090E0BA
:1004E00061E070E03ED680E091E013C76F927F92AA
:1004F0009F92AF92BF92CF92DF92EF92FF920F93B3
:100500001F93DF93CF93CDB7DEB76E970FB6F894F6
:10051000DEBF0FBECDBFDADF8E010F5F1F4FC801F8
:1005200061E00E943E0B20E030E0D801AE014B5E5E
:100530005F4FBE01655F7F4FFD01E20FF31F8081BA
:100540009181FA01E20FF31F91838083FB01E20F97
:10055000F31F918380832E5F3F4F2A30310561F76F
:10056000CD011DDFF1E06F2E712C7E010894E11C9E
:10057000F11CEBE0AE2EB12CAC0EBD1E75E1C72E0A
:10058000D12CCC0EDD1E80E1B1D7882371F0809193
:100590003001909131019301281B390B30933101C7
:1005A0002093300188EC90E0FBD782E09FD788232E
:1005B00061F080910801909109010A9790930901D7
:1005C0008093080184E690E0EBD780E28FD7882300
:1005D00011F499240EC080910801909109010A96A6
:1005E000909309018093080184E690E0D9D799247B
:1005F0009394C70161E00E943E0BC701B501A601BB
:100600002BDEC701B501A6014DDE9B01AC018B01BC
:100610008091300190913101892B11F0C901B3DE35
:100620008091300190913101892B29F480E090E094
:1006300060E070E059D7992019F083EE90E08FD4F4
:10064000A1D5B801882777FD8095982F43D680E003
:1006500090E061E070E085D5C701B501A601D3DE69
:1006600082E390E09DD78FCFCF93DF93BC018230A0
:10067000910510F462E070E0A0918D01B0918E01BF
:10068000ED01E0E0F0E040E050E021C08881998198
:100690008617970769F48A819B81309719F09383B5
:1006A000828304C090938E0180938D01FE0134C03B
:1006B0006817790738F44115510519F08417950723
:1006C00008F4AC01FE018A819B819C01E90120971D
:1006D000E9F641155105A9F1CA01861B970B04974C
:1006E00008F4BA01E0E0F0E02AC08D919C911197E6
:1006F00084179507F9F46417750781F412968D91A4
:100700009C911397309719F09383828304C0909340
:100710008E0180938D01FD0132964CC0CA01861B6B
:10072000970BFD01E80FF91F6193719302978D9369
:100730009C9340C0FD01828193819C01D901109757
:10074000A1F680918B0190918C01892B41F48091CD
:100750002C0190912D0190938C0180938B014091FD
:100760002E0150912F014115510541F44DB75EB74F
:1007700080912A0190912B01481B590B20918B01EC
:1007800030918C01CA01821B930B8617970780F06A
:10079000AB014E5F5F4F8417950750F0420F531F18
:1007A00050938C0140938B01F9016193719302C0C6
:1007B000E0E0F0E0CF01DF91CF910895CF93DF9398
:1007C000009709F450C0EC0122971B821A82A09175
:1007D0008D01B0918E01109709F140E050E0AC1707
:1007E000BD0708F1BB83AA83FE0121913191E20F7D
:1007F000F31FAE17BF0779F48D919C911197280FC5
:10080000391F2E5F3F4F3983288312968D919C911B
:1008100013979B838A834115510571F4D0938E0100
:10082000C0938D0120C012968D919C911397AD01BC
:10083000009711F0DC01D3CFFA01D383C283219159
:100840003191E20FF31FCE17DF0769F48881998198
:10085000280F391F2E5F3F4FFA01318320838A8191
:100860009B8193838283DF91CF910895A0E0B0E0D4
:10087000ECE3F4E00C94F50EFC015B01C42E8091D6
:1008800032018823C1F481E08093320110926F001D
:1008900083E28093800081E1809381001092820046
:1008A00080E197E2909389008093880010928B00FA
:1008B00010928A00229A10921301F7FD03C0DD24E2
:1008C000D39403C0FF772AE0D22E80918100082FB5
:1008D00010E0087F107088ECD89EC00111248E179C
:1008E0009F07C0F4EF0187E2E131F80710F0C0E1A3
:1008F000D7E2BE017695679580E090E06058794632
:1009000087469F4F9E0140E050E00E94B00E790163
:10091000016024C088E2D89E802D1124C82FD0E029
:10092000CE17DF0708F4EF01BE01769567959E01AB
:1009300040E050E08AE0D81639F480E090E0605E54
:10094000734481449F4F06C080E090E060537D4E29
:100950008C4E9F4F0E94B00E790102608AE0D8163B
:1009600039F4CE0105966AE070E00E94890EEB0131
:1009700083E0C83ED80711F4B5010FC0BE0180E086
:1009800090E0950140E050E00E945E0E28EE33E0DA
:1009900040E050E00E94D20EB90110926F00009327
:1009A0008100F0928900E0928800E0918800F09147
:1009B0008900AC2DA03108F0AFE080E190E08A1B07
:1009C000910902C0F695E7958A95E2F7F0938B00BE
:1009D000E0938A0070933A016093390186B38FEFF8
:1009E00086BB81E080936F007894CDB7DEB7EAE0F4
:1009F0000C94110FCF93DF93EB018F3F11F0442341
:100A000029F488EE93E0BE0140E067C0813110F424
:100A100020E005C0282F2051203608F02FE5822F36
:100A20006CE00E947D0E382F682F70E084EF9FEFFE
:100A3000689FF001699FF00D789FF00D1124E20F7F
:100A4000F11DEC30F10538F4EC5CFF4F0C94240FF1
:100A50008CE991E023C080E090E020C085EB91E03C
:100A60001DC08FEC91E01AC08AEE91E017C087E0BC
:100A700092E014C086E292E011C087E492E00EC0DA
:100A800089E692E00BC08EE892E008C085EB92E028
:100A900005C08EED92E002C08AE093E0373071F03D
:100AA00002C0880F991F6A95E2F7323020F0059650
:100AB0006AE070E00BC0805090480BC036E0880FB1
:100AC000991F3A95E1F7029665E070E00E94890E61
:100AD000CB01403108F04FE0BE01C8DEDF91CF917D
:100AE000089530913701E0913301F09134013323BF
:100AF00011F0249101C02081822F81548A3108F4A1
:100B0000205E203221F43196CF01019781F7F093D6
:100B10003401E0933301822F0895CF93DF93E1DF17
:100B2000282FC0E0D0E01CC0CE0153E0880F991FF1
:100B30005A95E1F7CC0FDD1FC80FD91F822F9927D7
:100B400087FD9095C80FD91FE09780913301909150
:100B5000340101969093340180933301C2DF282F32
:100B6000822F80538A3000F3CE01DF91CF91089518
:100B7000A0E0B0E0EEEBF5E00C94F30E80901401F1
:100B8000B0903501BB2021F060913601662399F4C5
:100B9000A09036010091190110911A01E090150101
:100BA000F0901601C0911701D0911801C0901B015F
:100BB000D0901C0103C18FEF70E040E01BDF10926A
:100BC0003601BDC194E0892EBB2404EF11E084E01E
:100BD000E82EF12CC0EDD7E0B4E09B2EAFE0CA2E9A
:100BE000D12C7FDF282F8091330190913401019621
:100BF0009093340180933301263609F498C0273648
:100C0000CCF42236A1F1233674F42E3361F12F3364
:100C100034F42132B9F22C3309F004C126C0213654
:100C200009F000C11AC1243609F451C025360CF070
:100C300066C035C02F3609F4BFC0203754F42C36B7
:100C400009F4A5C02D3609F4A5C0273609F0EAC07D
:100C500086C0243709F4CEC0263709F4E0C0223715
:100C600009F0E0C0ADC08394BCCF8A94BACFA09203
:100C70003601B092350110931A0100931901F092D8
:100C80001601E0921501D0931801C09317019092BC
:100C90001401D0921C01C0921B012BE0F5C0A09260
:100CA0003601B092350110931A0100931901F092A8
:100CB0001601E0921501D0931801C093170190928C
:100CC0001401D0921C01C0921B0120E0DDC0A09253
:100CD0003601B092350110931A0100931901F09278
:100CE0001601E0921501D0931801C093170190925C
:100CF0001401D0921C01C0921B0122E0C5C0A09239
:100D00003601B092350110931A0100931901F09247
:100D10001601E0921501D0931801C093170190922B
:100D20001401D0921C01C0921B0124E0ADC0A0921E
:100D30003601B092350110931A0100931901F09217
:100D40001601E0921501D0931801C09317019092FB
:100D50001401D0921C01C0921B0125E095C0A09205
:100D60003601B092350110931A0100931901F092E7
:100D70001601E0921501D0931801C09317019092CB
:100D80001401D0921C01C0921B0127E07DC0C5DE7A
:100D90007C0140C0A6DE8C3611F4BB2403C0AA241B
:100DA000BB24B394809133019091340101969093C8
:100DB00034018093330115CFB0DE882E982C11CFEB
:100DC000A0923601B092350110931A0100931901D7
:100DD000F0921601E0921501D0931801C09317010B
:100DE00090921401D0921C01C0921B0120E0FF24BC
:100DF000F3944BC092DEBC0180EC9DE58AD7CB0119
:100E0000EB01F3E0CC0FDD1FFA95E1F7880F991F96
:100E1000C80FD91FCE01B7017CD78B01E2CE7DDE92
:100E20006C01DFCEA0923601B092350110931A0109
:100E300000931901F0921601E0921501D093180168
:100E4000C093170190921401D0921C01C0921B0113
:100E5000109234011092330172C0A0923601B09208
:100E6000350110931A0100931901F0921601E092D6
:100E70001501D0931801C093170190921401D092DC
:100E80001C01C0921B0129E0FF248CE0889EC00158
:100E90001124E22EE80E0AC08091330190913401B2
:100EA00001969093340180933301E3941ADE8B32E0
:100EB00099F3833289F30BC080913301909134010F
:100EC00001969093340180933301EA940ADE8D32C7
:100ED00099F3C0911901D0911A018153883048F4D7
:100EE000009117011091180118DEBC01C80111D73B
:100EF000EB018E010BC0809133019091340101967A
:100F00009093340180933301C00FD11F169507953C
:100F1000E8DD8E3281F380913501882339F0CE01EE
:100F20009695879580933601C81BD109FF2011F053
:100F3000EE24EA948E2DBE0140911B015BDDCDB7FE
:100F4000DEB7ECE06CC710926F0090933401809391
:100F5000330181E0809337011092360109CEF3CF3F
:100F600008951F920F920FB60F9211242F933F9363
:100F70004F935F936F937F938F939F93AF93BF93A1
:100F8000EF93FF938091390190913A0101979093EB
:100F90003A0180933901019601F580918100887FA3
:100FA00081608093810080E197E290938900809333
:100FB000880010928B0010928A0081E080931301C8
:100FC00010926F008091330190913401892B29F0A8
:100FD00080913801882309F4CBDDFF91EF91BF9117
:100FE000AF919F918F917F916F915F914F913F91C1
:100FF0002F910F900FBE0F901F90189565B190E044
:10100000AC0141705070440F551F9C012670307028
:1010100053E0220F331F5A95E1F7422B6D7C462B8C
:1010200045B92BB18870907034E0880F991F3A95BC
:10103000E1F72F77282B2BB95C9A81E090E0FC0137
:101040006F9364E06A95F1F76F913197C9F75C98F7
:101050006F9364E06A95F1F76F910197C9F708956E
:10106000A0E0B0E0E5E3F8E0C3C6DAB057985A98DC
:10107000289AD5D27B018C01C1E0D0E05C9ACE01E8
:101080006F9364E06A95F1F76F910197C9F789B1A1
:101090005C98FE016F9364E06A95F1F76F91319768
:1010A000C9F75C9AFE016F9364E06A95F1F76F915E
:1010B0003197C9F75C9887FF0AC0B1D26E197F09D2
:1010C000800B910B6A30710581059105B8F2DAB891
:1010D000CDB7DEB7E7E0A8C6CF92DF92EF92FF92DE
:1010E0000F931F93082F162F73D0BADFD4B0C5B05B
:1010F000FAB0EBB05A9828988BB1110F110F812BD1
:101100008BB984B1826384B9579A802F82958F708E
:1011100075DF802F8F7072DFFAB8EBB8D4B8C5B81E
:101120001F910F91FF90EF90DF90CF90089560E0B6
:10113000D3CFA2E0B0E0EEE9F8E05DC6182F062FAD
:1011400080E8898380EC8A83FE01E60FF11D8181AE
:10115000810FEDDF10933C0100933B012296E4E008
:1011600066C6E7CF089581E0E2DFEDE1F1E080E2DD
:10117000819391E0E532F907D9F710923C01109282
:101180003B010895F0CF0895529A209A549A84E131
:1011900090E015D280E3CBDF86E090E010D280E3D0
:1011A000C6DF82E090E00BD280E3C1DF82E090E016
:1011B00006D280E2BCDF82E090E001D288E2B7DFB5
:1011C00088E0B5DF81E0B3DF86E0B1DF8CE0AFCF50
:1011D00080913D01882321F481E080933D01D4CFAB
:1011E00008956F927F928F929F92AF92BF92CF920B
:1011F000DF92FF920F93DF93CF93CDB7DEB72A979D
:101200000FB6F894DEBF0FBECDBF5B016C010AE0E4
:101210003E010894611C711CFA2CC601B5012AE03C
:1012200030E040E050E09CD5C901DA015C016D017D
:1012300001504301800E911C80E3F80EC601B501F8
:101240002AE030E040E050E039D5F61AF401F082AF
:10125000A114B104C104D104F9F608C0F601E00FED
:10126000F11D808161E038DF0F5F04C06E010894DA
:10127000C11CD11C0A3090F32A960FB6F894DEBF39
:101280000FBECDBFCF91DF910F91FF90DF90CF9038
:10129000BF90AF909F908F907F906F900895EF9246
:1012A000FF920F931F937B018C0197FF0BC010954A
:1012B0000095F094E094E11CF11C011D111D8DE2DC
:1012C00061E00ADFC801B7018CDF1F910F91FF9029
:1012D000EF900895E4CF0895CF93DF93EC0103C01E
:1012E00061E0FADE2196FE0184918823C9F7DF913F
:1012F000CF910895F1CF0895CF93DF93EC0103C010
:10130000219661E0E9DE88818823D1F7DF91CF91D2
:101310000895F2CF089561E0DFCEFDCF0895EF92FA
:10132000FF920F931F93CF93DF937C01062F10E062
:10133000E3E0000F111FEA95E1F7C0E0D0E09E0165
:10134000200F822F8064F3DEF701EC0FFD1FE49184
:101350008E2F61E0C1DE2196C830D10581F7CDB76F
:10136000DEB7E6E062C5DBCF0895282F883068F449
:1013700081E090E002C0880F991F2A95E2F7282F9C
:10138000AAE2B0E0EBE2F0E029C08E3080F430E079
:101390002850304081E090E002C0880F991F2A95C4
:1013A000E2F7282FA4E2B0E0E5E2F0E017C08531D3
:1013B00030F020E0A0E0B0E0E0E0F0E00FC030E08E
:1013C0002E50304081E090E002C0880F991F2A958E
:1013D000E2F7282FA7E2B0E0E8E2F0E06F3F19F46F
:1013E0008081822709C0662319F08081822B04C086
:1013F0009081822F8095892380838C91822B8C937E
:101400000895E0EBF0E083EF8083808184BDE1EB21
:10141000F0E082E08083808185BDE4EBF0E0108223
:101420008081E3EBF0E08083808188BD88B587BD53
:1014300086E060E09ADF85E060E097DF8BE060E0C7
:1014400094DF83E060E091CF80913E01882321F416
:1014500081E080933E01D5CF0895CF93DF93EC01D7
:10146000F3DFD7FD02C020E004C0D095C195DF4F67
:1014700021E0CE01CF3FD10519F014F08FEF90E0BD
:10148000222319F018BC87BD02C088BD17BCDF91AC
:10149000CF910895CF93DF93EC01D6DFD7FD02C043
:1014A00020E004C0D095C195DF4F21E0CE01CF3FB1
:1014B000D10519F014F08FEF90E0222329F010925B
:1014C000B4008093B30004C08093B4001092B300C2
:1014D000DF91CF9108950F931F938B01BEDFC80159
:1014E000D9DF1F910F910895F6CF0895282F80918D
:1014F0003F01882391F481E080933F0184B18D7C8A
:1015000084B985B1826385B981E090E06F9364E02E
:101510006A95F1F76F910197C9F783B1809582239E
:1015200008951F920F920FB60F9211242F933F939D
:101530004F938F939F93AF93BF932091440130912A
:101540004501C90180509C4F90934501809344010F
:1015500080519742C8F08091400190914101A09143
:101560004201B09143010196A11DB11D809340013C
:1015700090934101A0934201B09343012051334223
:101580003093450120934401BF91AF919F918F917A
:101590004F913F912F910F900FBE0F901F90189574
:1015A00028EE33E009C0F9016F9364E06A95F1F722
:1015B0006F913197C9F701970097A9F7089528EE21
:1015C00033E009C0F9016F9364E06A95F1F76F9118
:1015D0003197C9F701970097A9F70895A0E7B0E000
:1015E0008C918E7F8C93E0EBF0E080818360808330
:1015F000E1EBF0E08081807F808380818260808366
:10160000B89A8C9181608C9378940895809146016A
:10161000882321F481E080934601E0CF0895F6DF2E
:10162000E0E7F0E080818E7F80832091400130915F
:10163000410140914201509143018081816080834A
:10164000B901CA010895E2DFE0E7F0E080818E7F12
:101650008083109240011092410110924201109239
:1016600043011092450110924401B89A8081816033
:1016700080830895089587E491E002C39C01462F7A
:1016800087E491E0B90163C20F93DF93CF9300D059
:1016900000D00F92CDB7DEB79C01962FDE011196D8
:1016A000E5E2F1E085E001900D928150E1F7BE01A5
:1016B0006F5F7F4F992329F087E491E045E00FEFBA
:1016C00004C087E491E045E003E179D087E491E04C
:1016D0005ED0B9DF0F900F900F900F900F90CF91C9
:1016E000DF910F91089560E0CFCFFC01118210824D
:1016F000138212821582148217821682613118F0C9
:1017000080E1808701C06087208B483078F481E0D9
:1017100090E002C0880F991F4A95E2F781878BE21B
:1017200090E0938782878AE290E029C04E3098F457
:10173000242F30E02850304081E090E002C0880F34
:10174000991F2A95E2F7818785E290E09387828747
:1017500084E290E014C04431A8F4242F30E02E50ED
:10176000304081E090E002C0880F991F2A95E2F78F
:10177000818788E290E09387828787E290E095876F
:101780008487089515861486138612860895DC01D1
:101790001C96ED91FC911D97309781F080811996F0
:1017A0009C911997892B80831A96ED91FC911B9738
:1017B000908119968C918095892380830895A0E06B
:1017C000B0E0E4EEFBE00DC3EC016B01642F7901A6
:1017D000402F20E08ADFCE018F5B9F4FFC011082FB
:1017E000FE01EE5BFF4F1082DE01AD5BBF4F1C922E
:1017F000FF86EE8630E041E050E07F0166E2662E33
:10180000712C8C0123E2822E912CBD0199E2A92E2C
:10181000B12C58C0A32FB0E0F601EA0FFB1F808166
:101820008830C0F4FA0102C0EE0FFF1F8A95E2F77C
:10183000CF01FE01EA0FFB1F818BFB012081282BCA
:101840002083AA0FBB1FAC0FBD1F9296BC92AE9215
:10185000919737C08E30D0F490E00897FA0102C01B
:10186000EE0FFF1F8A95E2F7CF01FE01EA0FFB1F83
:10187000818BF8012081282B2083AA0FBB1FAC0F7E
:10188000BD1F92969C928E9291971BC08431C8F492
:1018900090E00E97FA0102C0EE0FFF1F8A95E2F763
:1018A000CF01FE01EA0FFB1F818BF7012081282B5E
:1018B0002083AA0FBB1FAC0FBD1F92967C926E9225
:1018C00091973F5F8885381708F4A4CFCDB7DEB76E
:1018D000EEE0A3C2A0E0B0E0EFE6FCE084C2EC01E1
:1018E0005B01CF5BDF4F4991A9918880C354D04001
:1018F00090E009C0E92FF0E0EE0FFF1FEA0DFB1D9D
:10190000118210829F5F88859817A0F384B1CF5B06
:10191000DF4F3991832B84B987B12991822B87B905
:101920008AB19881C354D040892B8AB985B1832B61
:1019300085B988B1822B88B98BB1892B8BB9EAE044
:10194000F0E06F9364E06A95F1F76F913197C9F712
:1019500084B13095832384B987B12095822387B9D8
:101960008AB1909589238AB985B1382335B988B170
:10197000282328B98BB198239BB99090B000C090D0
:10198000B1008091B00083608093B00082E08093CA
:10199000B100D090B20060E070E03AC05091B20067
:1019A0005D19650F711DE3B0E41609F04FC0F6B084
:1019B000FA1609F04BC089B1881509F047C025C057
:1019C000A42FB0E09D01220F331F8501020F131FCA
:1019D000F80180819181892BA1F42C0F3D1FF90121
:1019E00081A192A1FC01208130E0AC0FBD1F519676
:1019F0008C9190E028233923232B19F4F80171836B
:101A000060834F5F88854817D8F2D50E4E2DAF2DD5
:101A10008E859F856817790708F29092B000C09272
:101A2000B10020E00FC0E22FF0E0EE0FFF1FEA0D43
:101A3000FB1D80819181892B21F48E859F85918367
:101A400080832F5F8885281770F305C0E3B0F6B058
:101A500089B040E0D7CFCDB7DEB7ECE0E0C1A0E081
:101A6000B0E0E4E3FDE0C3C1EC018B01D0907C0069
:101A7000E0907A00C7B0F8B080917A0086FDFCCF84
:101A800090E009C0E92FF0E0EE0FFF1FE00FF11F1B
:101A9000118210829F5F88859817A0F397B18AA161
:101AA0008095982397B998B1892388B987E880935E
:101AB0007A0050E024C0FE01E40FF11D818980937B
:101AC0007C0080917A00806480937A0080917A0013
:101AD00086FDFCCFE42FF0E0EE0FFF1FE00FF11FBB
:101AE000209178003091790080819181820F931F3D
:101AF000918380834F5F88854817E8F25F5F89A1F3
:101B0000581710F040E016C040E0F5CFE42FF0E0A9
:101B1000EE0FFF1FE00FF11F69A1862F90E0959552
:101B2000879520813181820F931F70E0F2D07183FD
:101B300060834F5F8885481748F3D0927C00E0921D
:101B40007A00F8B8C7B8CDB7DEB7E8E06CC1A0E25C
:101B5000B0E0ECEAFDE04AC18C017B01D42E842F79
:101B600081508230B0F4D8011C96ED91FC911D9704
:101B7000309779F0808119969C911997892B8083F1
:101B80001A96ED91FC911B97808119969C91892B57
:101B90008083F8018089882339F5C02EB12EC801D1
:101BA000B70198DED8011C96ED91FC911D973097F6
:101BB00081F0808119969C911997892B80831A96C0
:101BC000ED91FC911B97908119968C9180958923BA
:101BD0008083B2E0DB1609F050C08C2D9B2DBE0136
:101BE0006F5F7F4F77DE25C0C02EB12EC801B701D1
:101BF00036DFD8011C96ED91FC911D97309781F04E
:101C0000808119969C911997892B80831A96ED9162
:101C1000FC911B97908119968C91809589238083E4
:101C2000B2E0DB1651F58C2D9B2DBE016F5F7F4F0F
:101C300016DF40E0BE016F5F7F4F1AC0E42FF0E077
:101C4000EE0FFF1F6701CE0EDF1EE60FF71FD80154
:101C50001E962D913C911F9780819181281B390BF5
:101C6000F60180819181820F931F918380834F5F62
:101C7000D80118968C91481708F3A096E9E0D2C0D5
:101C8000CF93DF93EC018A819B81009711F00E9432
:101C9000DE038E819F81009711F00E94DE03888110
:101CA0009981009711F00E94DE038C819D8100973D
:101CB00011F00E94DE03DF91CF910895629FD00161
:101CC000739FF001829FE00DF11D649FE00DF11DF7
:101CD000929FF00D839FF00D749FF00D659FF00DA6
:101CE0009927729FB00DE11DF91F639FB00DE11D93
:101CF000F91FBD01CF0111240895991B79E004C09B
:101D0000991F961708F0961B881F7A95C9F780953A
:101D10000895AA1BBB1B51E107C0AA1FBB1FA61732
:101D2000B70710F0A61BB70B881F991F5A95A9F784
:101D300080959095BC01CD01089597FB092E07264B
:101D40000AD077FD04D0E5DF06D000201AF47095A4
:101D500061957F4F0895F6F7909581959F4F08956F
:101D6000A1E21A2EAA1BBB1BFD010DC0AA1FBB1F9F
:101D7000EE1FFF1FA217B307E407F50720F0A21B11
:101D8000B30BE40BF50B661F771F881F991F1A947E
:101D900069F760957095809590959B01AC01BD01A8
:101DA000CF01089597FB092E05260ED057FD04D0CC
:101DB000D7DF0AD0001C38F4509540953095219516
:101DC0003F4F4F4F5F4F0895F6F790958095709570
:101DD00061957F4F8F4F9F4F08952F923F924F9263
:101DE0005F926F927F928F929F92AF92BF92CF92AB
:101DF000DF92EF92FF920F931F93CF93DF93CDB7B4
:101E0000DEB7CA1BDB0B0FB6F894DEBF0FBECDBF2B
:101E100009942A88398848885F846E847D848C84FC
:101E20009B84AA84B984C884DF80EE80FD800C8105
:101E30001B81AA81B981CE0FD11D0FB6F894DEBFE8
:101E40000FBECDBFED010895EE0FFF1F0590F49179
:101E5000E02D099412E0C6E0D2E003C0FE01F6DFF7
:0C1E60002296C830D107D1F7F894FFCFCC
:101E6C005072657373204200640020000102030469
:101E7C000506FF01040400D007F4010F0020202008
:101E8C0020202020200E0F10111220008F010000A6
:00000001FF
