:1000000041C0000066C0000064C0000062C0000083
:1000100060C000005EC000005CC000005AC000006C
:1000200058C00000B6C5000054C0000052C0000017
:1000300050C000004EC000004CC000004AC000008C
:1000400048C0000046C0000044C0000042C000009C
:1000500040C000003EC000003CC000003AC00000AC
:1000600038C0000036C000004E59552F43424C4C5A
:1000700000000000000000001F1F1F1F1F1F1F00A7
:100080007206730611241FBECFEFD8E0DEBFCDBFCE
:1000900011E0A0E0B1E0E8E8F4E102C005900D92C3
:1000A000A632B107D9F711E0A6E2B1E001C01D9276
:1000B000A436B107E1F710E0C2E8D0E004C022970F
:1000C000FE010E94340AC038D107C9F73CD10C9414
:1000D000380A96CFCF93DF93EC01DB01FA0140E0C1
:1000E00050E0288139818D919C911197281739070B
:1000F00018F411963C932E93288139818081918147
:100100008217930710F4318320834F5F5F4F22964D
:10011000129632964530510521F7DF91CF9108951F
:10012000A8E0B0E0E6E9F0E00C94FB099A8389834B
:100130007C836B835E834D832224332421016624D8
:100140007724430118861F8280E3A82E88EFB82EFB
:100150008FEFC82E8FEFD82EEB81FC812F81388551
:10016000E20FF31F20813181E981FA814F815885A7
:10017000E40FF51F80819181821B930BED81FE813D
:10018000E40FF51F60817181621B730BDC01E4E6F3
:10019000F0E0AE9FC001AF9F900DBE9F900D112467
:1001A0000E9497097B0100E010E0C601B501A8019B
:1001B00097010E947809260E371E481E591E6E0CA4
:1001C0007F1C801E911E2F8138852E5F3F4F388700
:1001D0002F8388EE93E0A0E0B0E0A80EB91ECA1EFF
:1001E000DB1E2A30310509F0B7CFC201B101A401ED
:1001F00093010E94E009CA01B9012896E2E10C943A
:10020000170AA0E0B0E0E7E0F1E00C94050A8C01E9
:100210006B017A01CCEEDFEFC80161E067D5C80160
:10022000B601A70157DFC832D10528F088E290E077
:1002300068ED7FEF04C088ED9FEF68E270E08CD43A
:1002400084E190E0E5D42196CC33D10529F780E014
:1002500090E060E070E080D4CDB7DEB7E8E00C94C9
:10026000210AA0E0B0E0E7E3F1E00C94050A6C019C
:100270007B018A01C0E0D0E0F701EC0FFD1F408157
:100280005181F601EC0FFD1F20813181241B350BBC
:10029000C90163E0880F991F6A95E1F7F801EC0F37
:1002A000FD1F60817181641B750B820F931F0E947B
:1002B000AB09CB016930710514F088E090E0FC01D6
:1002C00097FF02C0E0E0F0E0E65FFE4F80815DD383
:1002D0002296CA30D10581F6CDB7DEB7E8E00C949E
:1002E000210A0F931F9301E710E0C80160E073D368
:1002F000C801019661E06FD3C801029662E06BD33A
:10030000C801039663E067D3C801049664E063D331
:10031000C801059665E05FD3C801069666E05BD329
:1003200069D21F910F91089580ED97E014D5D9DF20
:1003300088E690E017D380E090E061E070E049D279
:1003400080E091E01EC3AEE1B0E0E9EAF1E00C9498
:10035000FF09EADF8E010F5F1F4FC80161E0C6D4BD
:1003600020E030E0D801AE014B5E5F4FBE01655F1B
:100370007F4FFD01E20FF31F80819181FA01E20FAF
:10038000F31F91838083FB01E20FF31F918380832E
:100390002E5F3F4F2A30310561F7CD0132DFF1E0AA
:1003A0006F2E712C6E010894C11CD11CEBE08E2EB7
:1003B000912C8C0E9D1E75E1A72EB12CAC0EBD1E8E
:1003C00080E1CCD3882371F08091260190912701A0
:1003D0009301281B390B309327012093260188ECC9
:1003E00090E016D482E0BAD3882361F080910801AE
:1003F000909109010A97909309018093080184E67E
:1004000090E006D480E2AAD3882361F080910801AD
:10041000909109010A96909309018093080184E65E
:1004200090E0F6D3C60161E061D4C601B401A50134
:1004300051DEC601B401A50173DE7B018C01DAD166
:100440000027F7FC0095102FC801B7017BD280E090
:1004500090E061E070E0BDD1C601B401A50101DF0B
:100460008AE090E0D5D3ACCFCF93DF93BC0182304C
:10047000910510F462E070E0A0916201B091630117
:10048000ED01E0E0F0E040E050E021C0888199819A
:100490008617970769F48A819B81309719F09383B7
:1004A000828304C09093630180936201FE0134C093
:1004B0006817790738F44115510519F08417950725
:1004C00008F4AC01FE018A819B819C01E90120971F
:1004D000E9F641155105A9F1CA01861B970B04974E
:1004E00008F4BA01E0E0F0E02AC08D919C911197E8
:1004F00084179507F9F46417750781F412968D91A6
:100500009C911397309719F09383828304C0909342
:10051000630180936201FD0132964CC0CA01861BC3
:10052000970BFD01E80FF91F6193719302978D936B
:100530009C9340C0FD01828193819C01D901109759
:10054000A1F68091600190916101892B41F4809125
:100550002201909123019093610180936001409169
:100560002401509125014115510541F44DB75EB765
:100570008091200190912101481B590B209160012D
:1005800030916101CA01821B930B8617970780F097
:10059000AB014E5F5F4F8417950750F0420F531F1A
:1005A0005093610140936001F9016193719302C01E
:1005B000E0E0F0E0CF01DF91CF910895CF93DF939A
:1005C000009709F450C0EC0122971B821A82A09177
:1005D0006201B0916301109709F140E050E0AC175F
:1005E000BD0708F1BB83AA83FE0121913191E20F7F
:1005F000F31FAE17BF0779F48D919C911197280FC7
:10060000391F2E5F3F4F3983288312968D919C911D
:1006100013979B838A834115510571F4D09363012D
:10062000C093620120C012968D919C911397AD01E9
:10063000009711F0DC01D3CFFA01D383C28321915B
:100640003191E20FF31FCE17DF0769F4888199819A
:10065000280F391F2E5F3F4FFA01318320838A8193
:100660009B8193838283DF91CF91089565B190E060
:10067000AC0141705070440F551F9C0126703070C2
:1006800053E0220F331F5A95E1F7422B6D7C462B26
:1006900045B92BB18870907034E0880F991F3A9556
:1006A000E1F72F77282B2BB95C9A81E090E0FC01D1
:1006B0006F9364E06A95F1F76F913197C9F75C9891
:1006C0006F9364E06A95F1F76F910197C9F7089508
:1006D000A0E0B0E0EDE6F3E099C6DAB057985A989A
:1006E000289AD5D27B018C01C1E0D0E05C9ACE0182
:1006F0006F9364E06A95F1F76F910197C9F789B13B
:100700005C98FE016F9364E06A95F1F76F91319701
:10071000C9F75C9AFE016F9364E06A95F1F76F91F7
:100720003197C9F75C9887FF0AC0B1D26E197F096B
:10073000800B910B6A30710581059105B8F2DAB82A
:10074000CDB7DEB7E7E07EC6CF92DF92EF92FF92A1
:100750000F931F93082F162F73D0BADFD4B0C5B0F4
:10076000FAB0EBB05A9828988BB1110F110F812B6A
:100770008BB984B1826384B9579A802F82958F7028
:1007800075DF802F8F7072DFFAB8EBB8D4B8C5B8B8
:100790001F910F91FF90EF90DF90CF90089560E050
:1007A000D3CFA2E0B0E0E6EDF3E033C6182F062F7A
:1007B00080E8898380EC8A83FE01E60FF11D818148
:1007C000810FEDDF10932901009328012296E4E0C8
:1007D0003CC6E7CF089581E0E2DFE3E1F1E080E2AB
:1007E000819391E0EB31F907D9F71092290110922A
:1007F00028010895F0CF0895529A209A549A84E1DE
:1008000090E015D280E3CBDF86E090E010D280E369
:10081000C6DF82E090E00BD280E3C1DF82E090E0AF
:1008200006D280E2BCDF82E090E001D288E2B7DF4E
:1008300088E0B5DF81E0B3DF86E0B1DF8CE0AFCFE9
:1008400080912A01882321F481E080932A01D4CF6A
:1008500008956F927F928F929F92AF92BF92CF92A4
:10086000DF92FF920F93DF93CF93CDB7DEB72A9736
:100870000FB6F894DEBF0FBECDBF5B016C010AE07E
:100880003E010894611C711CFA2CC601B5012AE0D6
:1008900030E040E050E072D5C901DA015C016D0141
:1008A00001504301800E911C80E3F80EC601B50192
:1008B0002AE030E040E050E01BD5F61AF401F08267
:1008C000A114B104C104D104F9F608C0F601E00F87
:1008D000F11D808161E038DF0F5F04C06E01089474
:1008E000C11CD11C0A3090F32A960FB6F894DEBFD3
:1008F0000FBECDBFCF91DF910F91FF90DF90CF90D2
:10090000BF90AF909F908F907F906F900895EF92DF
:10091000FF920F931F937B018C0197FF0BC01095E3
:100920000095F094E094E11CF11C011D111D8DE275
:1009300061E00ADFC801B7018CDF1F910F91FF90C2
:10094000EF900895E4CF0895CF93DF93EC0103C0B7
:1009500061E0FADE2196FE0184918823C9F7DF91D8
:10096000CF910895F1CF0895CF93DF93EC0103C0A9
:10097000219661E0E9DE88818823D1F7DF91CF916C
:100980000895F2CF089561E0DFCEFDCF0895EF9294
:10099000FF920F931F93CF93DF937C01062F10E0FC
:1009A000E3E0000F111FEA95E1F7C0E0D0E09E01FF
:1009B000200F822F8064F3DEF701EC0FFD1FE4911E
:1009C0008E2F61E0C1DE2196C830D10581F7CDB709
:1009D000DEB7E6E038C5DBCF0895282F883068F40D
:1009E00081E090E002C0880F991F2A95E2F7282F36
:1009F000AAE2B0E0EBE2F0E029C08E3080F430E013
:100A00002850304081E090E002C0880F991F2A955D
:100A1000E2F7282FA4E2B0E0E5E2F0E017C085316C
:100A200030F020E0A0E0B0E0E0E0F0E00FC030E027
:100A30002E50304081E090E002C0880F991F2A9527
:100A4000E2F7282FA7E2B0E0E8E2F0E06F3F19F408
:100A50008081822709C0662319F08081822B04C01F
:100A60009081822F8095892380838C91822B8C9317
:100A70000895E0EBF0E083EF8083808184BDE1EBBB
:100A8000F0E082E08083808185BDE4EBF0E01082BD
:100A90008081E3EBF0E08083808188BD88B587BDED
:100AA00086E060E09ADF85E060E097DF8BE060E061
:100AB00094DF83E060E091CF80912B01882321F4C3
:100AC00081E080932B01D5CF0895CF93DF93EC0184
:100AD000F3DFD7FD02C020E004C0D095C195DF4F01
:100AE00021E0CE01CF3FD10519F014F08FEF90E057
:100AF000222319F018BC87BD02C088BD17BCDF9146
:100B0000CF910895CF93DF93EC01D6DFD7FD02C0DC
:100B100020E004C0D095C195DF4F21E0CE01CF3F4A
:100B2000D10519F014F08FEF90E0222329F01092F4
:100B3000B4008093B30004C08093B4001092B3005B
:100B4000DF91CF9108950F931F938B01BEDFC801F2
:100B5000D9DF1F910F910895F6CF0895282F809126
:100B60002C01882391F481E080932C0184B18D7C49
:100B700084B985B1826385B981E090E06F9364E0C8
:100B80006A95F1F76F910197C9F783B18095822338
:100B900008951F920F920FB60F9211242F933F9337
:100BA0004F938F939F93AF93BF93209131013091D7
:100BB0003201C90180509C4F9093320180933101E2
:100BC00080519742C8F080912D0190912E01A09103
:100BD0002F01B09130010196A11DB11D80932D010F
:100BE00090932E01A0932F01B093300120513342F6
:100BF0003093320120933101BF91AF919F918F913A
:100C00004F913F912F910F900FBE0F901F9018950D
:100C100028EE33E009C0F9016F9364E06A95F1F7BB
:100C20006F913197C9F701970097A9F7089528EEBA
:100C300033E009C0F9016F9364E06A95F1F76F91B1
:100C40003197C9F701970097A9F70895A0E7B0E099
:100C50008C918E7F8C93E0EBF0E0808183608083C9
:100C6000E1EBF0E08081807F8083808182608083FF
:100C7000B89A8C9181608C93789408958091330117
:100C8000882321F481E080933301E0CF0895F6DFDB
:100C9000E0E7F0E080818E7F808320912D0130910C
:100CA0002E0140912F01509130018081816080831D
:100CB000B901CA010895E2DFE0E7F0E080818E7FAC
:100CC000808310922D0110922E0110922F0110920C
:100CD00030011092320110923101B89A8081816006
:100CE00080830895089584E391E0E8C29C01462F33
:100CF00084E391E0B90149C20F93DF93CF9300D011
:100D000000D00F92CDB7DEB79C01962FDE01119671
:100D1000EBE1F1E085E001900D928150E1F7BE0139
:100D20006F5F7F4F992329F084E391E045E00FEF57
:100D300004C084E391E045E003E179D084E391E0ED
:100D40005ED0B9DF0F900F900F900F900F90CF9162
:100D5000DF910F91089560E0CFCFFC0111821082E6
:100D6000138212821582148217821682613118F062
:100D700080E1808701C06087208B483078F481E073
:100D800090E002C0880F991F4A95E2F781878BE2B5
:100D900090E0938782878AE290E029C04E3098F4F1
:100DA000242F30E02850304081E090E002C0880FCE
:100DB000991F2A95E2F7818785E290E093878287E1
:100DC00084E290E014C04431A8F4242F30E02E5087
:100DD000304081E090E002C0880F991F2A95E2F729
:100DE000818788E290E09387828787E290E0958709
:100DF0008487089515861486138612860895DC016B
:100E00001C96ED91FC911D97309781F08081199689
:100E10009C911997892B80831A96ED91FC911B97D1
:100E2000908119968C918095892380830895A0E004
:100E3000B0E0ECE1F7E0E9C2EC016B017901642F6D
:100E4000402F20E08ADF19A61AA61BA6FF86EE8691
:100E500030E041E050E096E2E92EF12C03E210E0B0
:100E600069E270E055C0A32FB0E0F601EA0FFB1F66
:100E700080818830B8F4FA0102C0EE0FFF1F8A9516
:100E8000E2F7CF01FE01EA0FFB1F818B2BA5282B78
:100E90002BA7AA0FBB1FAC0FBD1F5A967C936E9356
:100EA000599735C08E30C8F490E00897FA0102C017
:100EB000EE0FFF1F8A95E2F7CF01FE01EA0FFB1F3D
:100EC000818B29A5282B29A7AA0FBB1FAC0FBD1FFB
:100ED0005A961C930E9359971AC08431C0F490E02F
:100EE0000E97FA0102C0EE0FFF1F8A95E2F7CF01BD
:100EF000FE01EA0FFB1F818B2AA5282B2AA7AA0F28
:100F0000BB1FAC0FBD1F5A96FC92EE9259973F5FE4
:100F10008885381708F4A7CFCDB7DEB7E8E091C2CF
:100F2000A0E0B0E0E5E9F7E06CC2EC015B0149A5A7
:100F3000AAA58BA490E009C0E92FF0E0EE0FFF1FF7
:100F4000EA0DFB1D118210829F5F88859817A0F320
:100F500084B139A5832B84B987B12AA5822B87B99F
:100F60008AB19BA5892B8AB985B1832B85B988B1B4
:100F7000822B88B98BB1892B8BB9EAE0F0E06F93B3
:100F800064E06A95F1F76F913197C9F784B13095B4
:100F9000832384B987B12095822387B98AB190953C
:100FA00089238AB985B1382335B988B1282328B96E
:100FB0008BB198239BB99090B000C090B100809104
:100FC000B00083608093B00082E08093B100D09045
:100FD000B20060E070E03AC05091B2005D19650F58
:100FE000711DE3B0E41609F04FC0F6B0FA1609F02F
:100FF0004BC089B1881509F047C025C0A42FB0E0C7
:101000009D01220F331F8501020F131FF8018081FC
:101010009181892BA1F42C0F3D1FF901818D928DB7
:10102000FC01208130E0AC0FBD1F51968C9190E007
:1010300028233923232B19F4F801718360834F5F30
:1010400088854817D8F2D50E4E2DAF2D8E859F85F9
:101050006817790708F29092B000C092B10020E0C2
:101060000FC0E22FF0E0EE0FFF1FEA0DFB1D8081A5
:101070009181892B21F48E859F85918380832F5FB9
:101080008885281770F305C0E3B0F6B089B040E05A
:10109000D7CFCDB7DEB7ECE0D0C1A0E0B0E0E2E55D
:1010A000F8E0B3C1EC018B01D0907C00E0907A00B5
:1010B000C7B0F8B080917A0086FDFCCF90E009C0FF
:1010C000E92FF0E0EE0FFF1FE00FF11F11821082F9
:1010D0009F5F88859817A0F397B18A8D8095982394
:1010E00097B998B1892388B987E880937A0050E04E
:1010F00024C0FE01E40FF11D818980937C00809162
:101100007A00806480937A0080917A0086FDFCCF1B
:10111000E42FF0E0EE0FFF1FE00FF11F20917800A9
:101120003091790080819181820F931F9183808318
:101130004F5F88854817E8F25F5F898D581710F078
:1011400040E016C040E0F5CFE42FF0E0EE0FFF1FC7
:10115000E00FF11F698D862F90E09595879520818E
:101160003181820F931F70E0E2D0718360834F5F03
:101170008885481748F3D0927C00E0927A00F8B84E
:10118000C7B8CDB7DEB7E8E05CC1A0E1B0E0EAECFB
:10119000F8E03AC18C017B01D42E842F815082303B
:1011A000B0F4D8011C96ED91FC911D97309779F021
:1011B000808119969C911997892B80831A96ED91BD
:1011C000FC911B97808119969C91892B8083F80153
:1011D0008089882339F5C02EB12EC801B701A0DE61
:1011E000D8011C96ED91FC911D97309781F080817C
:1011F00019969C911997892B80831A96ED91FC91F1
:101200001B97908119968C91809589238083B2E0F9
:10121000DB1609F050C08C2D9B2DBE016F5F7F4FF8
:101220007FDE25C0C02EB12EC801B70136DFD80140
:101230001C96ED91FC911D97309781F08081199655
:101240009C911997892B80831A96ED91FC911B979D
:10125000908119968C91809589238083B2E0DB166A
:1012600051F58C2D9B2DBE016F5F7F4F16DF40E047
:10127000BE016F5F7F4F1AC0E42FF0E0EE0FFF1F3B
:101280006701CE0EDF1EE60FF71FD8011E962D91C7
:101290003C911F9780819181281B390BF601808139
:1012A0009181820F931F918380834F5FD80118969D
:1012B0008C91481708F36096E9E0C2C0CF93DF93A2
:1012C000EC018A819B81009709F078D98E819F81FA
:1012D000009709F073D988819981009709F06ED938
:1012E0008C819D81009709F069D9DF91CF91089594
:1012F000629FD001739FF001829FE00DF11D649FFA
:10130000E00DF11D929FF00D839FF00D749FF00D85
:10131000659FF00D9927729FB00DE11DF91F639F26
:10132000B00DE11DF91FBD01CF0111240895AA1BC5
:10133000BB1B51E107C0AA1FBB1FA617B70710F0C0
:10134000A61BB70B881F991F5A95A9F780959095F2
:10135000BC01CD01089597FB092E07260AD077FD21
:1013600004D0E5DF06D000201AF4709561957F4F18
:101370000895F6F7909581959F4F0895A1E21A2E52
:10138000AA1BBB1BFD010DC0AA1FBB1FEE1FFF1F29
:10139000A217B307E407F50720F0A21BB30BE40B79
:1013A000F50B661F771F881F991F1A9469F76095C0
:1013B0007095809590959B01AC01BD01CF0108957A
:1013C00097FB092E05260ED057FD04D0D7DF0AD093
:1013D000001C38F450954095309521953F4F4F4F64
:1013E0005F4F0895F6F790958095709561957F4FC2
:1013F0008F4F9F4F08952F923F924F925F926F921F
:101400007F928F929F92AF92BF92CF92DF92EF9294
:10141000FF920F931F93CF93DF93CDB7DEB7CA1B15
:10142000DB0B0FB6F894DEBF0FBECDBF09942A8840
:10143000398848885F846E847D848C849B84AA84E8
:10144000B984C884DF80EE80FD800C811B81AA8175
:10145000B981CE0FD11D0FB6F894DEBF0FBECDBF40
:10146000ED010895EE0FFF1F0590F491E02D099412
:1014700010E0C2E8D0E003C0FE01F6DF2296C438D7
:08148000D107D1F7F894FFCF6A
:101488005072657373204200640020000102030457
:101498000506FF20202020202020200E0F101112EA
:0614A800200064010000B9
:00000001FF
