:10000000F7C000001CC100001AC1000018C10000A8
:1000100016C1000014C1000012C1000010C1000090
:100020000EC100000C94BC0B0AC1000008C1000006
:1000300006C1000004C1000002C1000000C10000B0
:10004000FEC00000FCC00000FAC00000F8C00000C4
:10005000F6C00000F4C00000F2C00000F0C00000D4
:10006000EEC00000ECC000005374657665204C00C3
:10007000000000000000001F1F1F1F1F1F1F214C3A
:10008000313620563820636465666761623E63627C
:10009000616766656463002154323430204C382037
:1000A0006120676166616561646120632B616461E1
:1000B00065616661203E61613E62616323616461E6
:1000C00020632361646165616634004F36205434D7
:1000D00030204C382064233C623C66233C64233C43
:1000E00066233C62642366235438302063233C62D9
:1000F0002D3C66233C63233C66233C622D632338FE
:1001000054313830206423623C6623642366233EE6
:1001100062642366236323622D3C66236323662384
:100120003E622D63233820633E63233C63233E639A
:10013000233C623E63233C63233E6323633E63238D
:100140003C63233E63233C623E63233C63233E6364
:1001500023633E63233C63233E63233C622D3E6363
:10016000233C63233E6323633E63233C63233E635C
:10017000233C622D3E63233C63233E6323633E6343
:10018000233C63233E6323663E63233C63233E6339
:1001900023633E63233C63233E6323663E63233C29
:1001A00063233E6323633E63233C63233E632366F2
:1001B000233E63233C63233E6323633E63233C630C
:1001C000233E632366233E63233C63233E63236411
:1001D0002362622D62642362662364236323622D9B
:1001E00061622D6323622D6623642300650C660C17
:1001F00011241FBECFEFD8E0DEBFCDBF12E0A0E0DC
:10020000B1E0E2EAF0E202C005900D92AE32B10731
:10021000D9F712E0AEE2B2E001C01D92A438B107F6
:10022000E1F711E0CEEED1E004C02297FE010E947A
:100230004110CC3ED107C9F751D10C944510E0CE06
:10024000CF93DF93EC01DB01FA0140E050E028811D
:1002500039818D919C9111972817390718F41196BF
:100260003C932E9328813981808191818217930755
:1002700010F4318320834F5F5F4F2296129632969F
:100280004530510521F7DF91CF910895A0E0B0E00E
:10029000ECE4F1E00C9408101C012B013A01AA24B3
:1002A000BB246501EE24FF248701C0E0D0E098E381
:1002B000892E9FEF992EF201EC0FFD1F20813181D5
:1002C000F101EC0FFD1F80819181821B930BF301E3
:1002D000EC0FFD1F60817181621B730B9C014CE26E
:1002E00051E0249FC001259F900D349F900D112453
:1002F0000E94A40F9B01869EC001879E900D969E32
:10030000900D1124AA2797FDA095BA2FA80EB91E0B
:10031000CA1EDB1E442737FD4095542FE20EF31E04
:10032000041F151FE114F1040105110529F481E0F2
:10033000E82EF12C012D112D229684E690E0880EF6
:10034000991ECA30D10509F0B6CFC601B501A80182
:1003500097010E94ED0FCA01B901CDB7DEB7E2E106
:100360000C9424102091080130910901B901681BF7
:10037000790B820F931F0C949F0BA0E0B0E0E3EC8D
:10038000F1E00C9412108C016B017A01CCEEDFEFDE
:10039000C80161E00E94690CC801B601A70150DFE5
:1003A000C832D10528F088E290E068ED7FEF04C004
:1003B00088ED9FEF68E270E00E949F0B84E190E07F
:1003C0000E94FB0B2196CC33D10511F780E090E021
:1003D00060E070E00E949F0BCDB7DEB7E8E00C94C0
:1003E0002E10A0E0B0E0E7EFF1E00C9412106C01E9
:1003F0007B018A01C0E0D0E0F701EC0FFD1F4081D6
:100400005181F601EC0FFD1F20813181241B350B3A
:10041000C90163E0880F991F6A95E1F7F801EC0FB5
:10042000FD1F60817181641B750B820F931F0E94F9
:10043000B80FCB016930710514F088E090E0FC0141
:1004400097FF02C0E0E0F0E0E65FFE4F80810E948F
:10045000B80A2296CA30D10579F6CDB7DEB7E8E002
:100460000C942E100F931F9300E710E0C80160E07A
:100470000E94DE0AC801019661E00E94DE0AC801FE
:10048000029662E00E94DE0AC801039663E00E94C1
:10049000DE0AC801049664E00E94DE0AC8010596DF
:1004A00065E00E94DE0AC801069666E00E94DE0A48
:1004B00094D71F910F91089580ED97E00E949E0CB4
:1004C000D1DF88E690E00E94A50A80E090E061E03C
:1004D00070E072D780E091E00C94B40AAEE1B0E035
:1004E000E4E7F2E00C940810E7DF8E010F5F1F4F86
:1004F000C80161E00E94690C20E030E0AE014B5E73
:100500005F4FBE01655F7F4FF801E20FF31F8081EF
:100510009181FA01E20FF31F91838083FB01E20FC7
:10052000F31F918380832E5F3F4F2A30310561F79F
:10053000C80123DF88249924CC24DD243E010894BB
:10054000611C711CEBE02E2E312C2C0E3D1E75E132
:10055000472E512C4C0E5D1E80E10E94A10B88237A
:1005600081F080912E0290912F0221E030E0281B33
:10057000390B30932F0220932E0288EC90E00E94DA
:10058000FB0B82E00E94A10B882339F00894C1087C
:10059000D10884E690E00E94FB0B80E20E94A10B50
:1005A000882339F00894C11CD11C84E690E00E9495
:1005B000FB0BC30161E00E94690CC301B101A20100
:1005C00065DE5B01AC9CC001AD9C900DBC9C900DA8
:1005D000112464E670E00E94B80F882777FD8095AB
:1005E000982FEAD27B018C01C501881999096AE02C
:1005F00070E00E94B80F882777FD8095982FDCD295
:1006000020E030E040E050E0E0D19B01AC01C801C7
:10061000B701B2D17B018C0180912E0290912F0203
:10062000892B31F0C801B70123D3DC01CB019ADE5D
:1006300080912E0290912F02892B31F480E090E07E
:1006400060E070E00E949F0BC8D6B601882777FD56
:100650008095982F6AD784E090E060E070E0ACD697
:10066000C801B70105D361D780E090E061E070E098
:10067000A3D6C301B101A201B4DE8AE090E00E94DA
:10068000FB0B450169CFA0E0B0E0E9E4F3E00C9496
:100690000810DC012B01FA019C91923008F439C159
:1006A000EB018881823008F433C1943069F48430DE
:1006B00009F02FC111969C9111978981981709F41F
:1006C00028C1A0E2B1E025C1843009F421C1823003
:1006D000A9F4923009F01DC19A01AD0188E0EA0148
:1006E0000990AE01E90109929E018150C1F7E20132
:1006F000898111969C918923818308C1923009F4E4
:1007000007C112962D903C901397EB018A819B8133
:100710001496AD90BD90CD90DC901797EC80FD8045
:100720000E811F819101281B390BB90137FF04C0CD
:1007300066277727621B730B603271050CF061C06E
:10074000121613066CF537014801062E04C0969464
:100750008794779467940A94D2F721E030E040E0E0
:1007600050E004C0220F331F441F551F6A95D2F773
:1007700021503040404050402E213F214023512302
:10078000211531054105510521F021E030E040E01F
:1007900050E079018A01E628F728082919293CC088
:1007A000232BD1F1260E371E35014601062E04C03B
:1007B00096948794779467940A94D2F721E030E076
:1007C00040E050E004C0220F331F441F551F6A95BC
:1007D000D2F721503040404050402A213B214C214B
:1007E0005D21211531054105510521F021E030E061
:1007F00040E050E059016A01A628B728C828D92846
:100800000BC0821593052CF01C01AA24BB246501A2
:1008100003C0EE24FF24870111969C91D20111960A
:100820008C91981709F445C0992339F0A8019701D4
:100830002A193B094C095D0906C0A60195012E192C
:100840003F09400B510B57FD08C0118233822282B1
:1008500024833583468357831DC081E0818333829F
:10086000228288279927DC01821B930BA40BB50BEE
:1008700084839583A683B7830DC0220F331F441F43
:10088000551F248335834683578382819381019743
:10089000938382832481358146815781DA01C9019E
:1008A0000197A109B1098F5F9F4FAF4FBF4328F355
:1008B0000BC0918333822282EA0CFB1C0C1D1D1D90
:1008C000E482F5820683178383E080832481358167
:1008D0004681578157FF1AC0C901AA2797FDA095E5
:1008E000BA2F81709070A070B0705695479537956B
:1008F0002795822B932BA42BB52B84839583A683DA
:10090000B78382819381019693838283DF0101C043
:10091000D201CD01CDB7DEB7E2E10C942410A0E204
:10092000B0E0E5E9F4E00C94141069837A838B83DA
:100930009C832D833E834F835887E9E0EE2EF12C74
:10094000EC0EFD1ECE010196B70109D38E010F5E9C
:100950001F4FCE010596B80102D38A8991E08927FD
:100960008A8BC701B801AE01475E5F4F8CDE22D291
:10097000A096E6E00C943010A0E2B0E0E2ECF4E0E7
:100980000C94141069837A838B839C832D833E831C
:100990004F835887F9E0EF2EF12CEC0EFD1ECE01AF
:1009A0000196B701DCD28E010F5E1F4FCE01059676
:1009B000B801D5D2C701B801AE01475E5F4F63DE13
:1009C000F9D1A096E6E00C943010A0E2B0E0EBEE96
:1009D000F4E00C94081069837A838B839C832D83C5
:1009E0003E834F835887CE010196BE01675F7F4FDC
:1009F000B6D2CE010596BE016F5E7F4FB0D299850B
:100A0000923088F089898230C8F0943019F48230AD
:100A100051F404C0843029F4923081F480E291E0F2
:100A2000C6C0923049F420E09A858A89981321E063
:100A30002A87CE010996BBC0823049F420E09A850E
:100A40008A89981321E02A8BCE014196B0C02D846B
:100A50003E844F8458886D887E888F88988CEE24D9
:100A6000FF248701AA24BB24650140E050E060E038
:100A700070E0E0E0F0E0C10181709070892BE9F056
:100A8000E60CF71C081D191D9A01AB012A0D3B1D30
:100A90004C1D5D1D80E090E0A0E0B0E0E614F7049E
:100AA0000805190520F481E090E0A0E0B0E0BA016B
:100AB000A901480F591F6A1F7B1FAA0CBB1CCC1C25
:100AC000DD1C97FE08C081E090E0A0E0B0E0A82A1D
:100AD000B92ACA2ADB2A3196E032F10549F0660CC0
:100AE000771C881C991C5694479437942794C3CF3D
:100AF000FA85EA892B893C898B859C85280F391FCB
:100B00002E5F3F4F17C0CA0181709070892B61F032
:100B100016950795F794E79480E090E0A0E0B0E8A0
:100B2000E82AF92A0A2B1B2B769567955795479546
:100B30002F5F3F4F77FDE7CF0CC0440F551F661F57
:100B4000771F17FD4160EE0CFF1C001F111F215085
:100B50003040403090E0590790E0690790E4790711
:100B600060F32B8F3C8FDB01CA018F779070A070F0
:100B7000B07080349105A105B10561F447FD0AC04C
:100B8000E114F1040105110529F0405C5F4F6F4F3E
:100B90007F4F40781A8EFE1711F081E08A8F4D8FBB
:100BA0005E8F6F8F78A383E0898FCE01499602D143
:100BB000A096E2E10C942410A8E0B0E0E2EEF5E0AB
:100BC0000C9411109B01AC0183E08983DA01C90107
:100BD0008827B7FD83959927AA27BB27B82E21150B
:100BE00031054105510519F482E0898339C0882314
:100BF000A9F0203080E0380780E0480780E85807F7
:100C000029F460E070E080E09FEC2EC0EE24FF2429
:100C10008701E21AF30A040B150B02C079018A015D
:100C20008EE1C82ED12CDC82CB82ED82FE820F8336
:100C30001887C801B7016FD001971816190684F4F8
:100C4000082E04C0EE0CFF1C001F111F0A94D2F7DF
:100C5000ED82FE820F831887C81AD90ADC82CB8204
:100C6000BA82CE010196A6D02896E9E00C942D1008
:100C7000ACE0B0E0EEE3F6E00C94181069837A8300
:100C80008B839C83CE010196BE016B5F7F4F67D142
:100C90008D81823061F1823050F1843021F48E8177
:100CA000882351F12EC02F81388537FD20C06E81F9
:100CB0002F3131051CF06623F9F023C08EE190E05E
:100CC000821B930B29853A854B855C8504C056951C
:100CD0004795379527958A95D2F76623B1F05095B9
:100CE0004095309521953F4F4F4F5F4F0EC020E00C
:100CF00030E040E050E009C02FEF3FEF4FEF5FE7FB
:100D000004C020E030E040E050E8B901CA012C9670
:100D1000E2E00C943410EF92FF920F931F937B014B
:100D20008C0180E0E81680E0F80681E0080780E0AA
:100D3000180788F48FEFE816F1040105110531F06A
:100D400028F088E090E0A0E0B0E017C080E090E0FC
:100D5000A0E0B0E012C080E0E81680E0F80680E095
:100D6000080781E0180728F088E190E0A0E0B0E0F3
:100D700004C080E190E0A0E0B0E020E230E040E09C
:100D800050E0281B390B4A0B5B0B04C016950795E6
:100D9000F794E7948A95D2F7F701E85DFE4F8081DA
:100DA000281B310941095109C9011F910F91FF9079
:100DB000EF900895DF92EF92FF920F931F93FC0143
:100DC000E480F58006811781D1808081823048F4EB
:100DD00080E090E0A0E1B0E0E82AF92A0A2B1B2B82
:100DE000A5C0843009F49FC0823021F4EE24FF2492
:100DF000870105C0E114F1040105110519F4E0E0D3
:100E0000F0E096C0628173819FEF623879070CF041
:100E10005BC022E83FEF261B370B2A3131052CF04F
:100E200020E030E040E050E02AC0B801A701022EE7
:100E300004C076956795579547950A94D2F781E057
:100E400090E0A0E0B0E004C0880F991FAA1FBB1F6C
:100E50002A95D2F70197A109B1098E219F21A023DC
:100E6000B1230097A105B10521F081E090E0A0E059
:100E7000B0E09A01AB01282B392B4A2B5B2BDA010E
:100E8000C9018F779070A070B07080349105A10572
:100E9000B10539F427FF09C0205C3F4F4F4F5F4F2A
:100EA00004C0215C3F4F4F4F5F4FE0E0F0E0203047
:100EB000A0E03A07A0E04A07A0E45A0710F0E1E0FA
:100EC000F0E079018A0127C06038710564F5FB0103
:100ED000E158FF4FD801C7018F779070A070B070B4
:100EE00080349105A105B10539F4E7FE0DC080E419
:100EF00090E0A0E0B0E004C08FE390E0A0E0B0E0BC
:100F0000E80EF91E0A1F1B1F17FF05C0169507954F
:100F1000F794E794319687E016950795F794E79450
:100F20008A95D1F705C0EE24FF248701EFEFF0E0AA
:100F30006E2F679566276795902F9F77D794DD244E
:100F4000D7948E2F8695492F462B582F5D29B701B0
:100F5000CA011F910F91FF90EF90DF900895FC015F
:100F6000DB01408151812281622F6F7770E0221F67
:100F70002227221F9381892F880F822B282F30E070
:100F8000991F9927991F11969C9311972115310547
:100F9000A9F5411551056105710511F482E037C0CD
:100FA00082E89FEF13969C938E9312979A01AB0160
:100FB00067E0220F331F441F551F6A95D1F783E066
:100FC0008C930DC0220F331F441F551F12968D9115
:100FD0009C911397019713969C938E9312972030B0
:100FE00080E0380780E0480780E4580758F31496FB
:100FF0002D933D934D935C93179708952F3F3105A3
:1010000079F4411551056105710519F484E08C935B
:10101000089564FF03C081E08C9312C01C9210C03D
:101020002F57304013963C932E93129783E08C9366
:1010300087E0440F551F661F771F8A95D1F77064AC
:1010400014964D935D936D937C9317970895CF936A
:10105000DF93BC018230910510F462E070E0A09152
:101060008202B0918302ED01E0E0F0E040E050E068
:1010700021C0888199818617970769F48A819B81AD
:10108000309719F09383828304C0909383028093F6
:101090008202FE0134C06817790738F44115510502
:1010A00019F08417950708F4AC01FE018A819B8131
:1010B0009C01E9012097E9F641155105A9F1CA0102
:1010C000861B970B049708F4BA01E0E0F0E02AC011
:1010D0008D919C91119784179507F9F46417750702
:1010E00081F412968D919C911397309719F0938308
:1010F000828304C09093830280938202FD01329622
:101100004CC0CA01861B970BFD01E80FF91F6193C4
:10111000719302978D939C9340C0FD0182819381CE
:101120009C01D9011097A1F68091800290918102D3
:10113000892B41F480912A0290912B029093810295
:101140008093800240912C0250912D02411551054F
:1011500041F44DB75EB78091280290912902481B57
:10116000590B2091800230918102CA01821B930B9E
:101170008617970780F0AB014E5F5F4F8417950786
:1011800050F0420F531F5093810240938002F901A7
:101190006193719302C0E0E0F0E0CF01DF91CF9165
:1011A0000895CF93DF93009709F450C0EC01229784
:1011B0001B821A82A0918202B0918302109709F1DA
:1011C00040E050E0AC17BD0708F1BB83AA83FE01E5
:1011D00021913191E20FF31FAE17BF0779F48D9182
:1011E0009C911197280F391F2E5F3F4F3983288319
:1011F00012968D919C9113979B838A83411551057B
:1012000071F4D0938302C093820220C012968D9114
:101210009C911397AD01009711F0DC01D3CFFA0137
:10122000D383C28321913191E20FF31FCE17DF07E1
:1012300069F488819981280F391F2E5F3F4FFA0189
:10124000318320838A819B8193838283DF91CF9135
:10125000089565B190E0AC0141705070440F551F86
:101260009C012670307053E0220F331F5A95E1F72E
:10127000422B6D7C462B45B92BB18870907034E0C1
:10128000880F991F3A95E1F72F77282B2BB95C9A95
:1012900081E090E0FC016F9364E06A95F1F76F9153
:1012A0003197C9F75C986F9364E06A95F1F76F9195
:1012B0000197C9F70895A0E0B0E0E0E6F9E0B3C611
:1012C000DAB057985A98289AD5D27B018C01C1E0A0
:1012D000D0E05C9ACE016F9364E06A95F1F76F916C
:1012E0000197C9F789B15C98FE016F9364E06A9534
:1012F000F1F76F913197C9F75C9AFE016F9364E043
:101300006A95F1F76F913197C9F75C9887FF0AC02A
:10131000B1D26E197F09800B910B6A30710581057E
:101320009105B8F2DAB8CDB7DEB7E7E098C6CF924C
:10133000DF92EF92FF920F931F93082F162F73D017
:10134000BADFD4B0C5B0FAB0EBB05A9828988BB1D8
:10135000110F110F812B8BB984B1826384B9579A15
:10136000802F82958F7075DF802F8F7072DFFAB8B3
:10137000EBB8D4B8C5B81F910F91FF90EF90DF90F4
:10138000CF90089560E0D3CFA2E0B0E0E9ECF9E0BF
:101390004DC6182F062F80E8898380EC8A83FE01D2
:1013A000E60FF11D8181810FEDDF10933102009373
:1013B00030022296E4E056C6E7CF089581E0E2DFEE
:1013C000E3E1F1E080E2819391E0EB31F907D9F7B5
:1013D00010923102109230020895F0CF0895529A7F
:1013E000209A549A84E190E015D280E3CBDF86E026
:1013F00090E010D280E3C6DF82E090E00BD280E381
:10140000C1DF82E090E006D280E2BCDF82E090E0C3
:1014100001D288E2B7DF88E0B5DF81E0B3DF86E0A4
:10142000B1DF8CE0AFCF80913202882321F481E0DC
:1014300080933202D4CF08956F927F928F929F92C1
:10144000AF92BF92CF92DF92FF920F93DF93CF9331
:10145000CDB7DEB72A970FB6F894DEBF0FBECDBF6B
:101460005B016C010AE03E010894611C711CFA2CBE
:10147000C601B5012AE030E040E050E08CD5C9015A
:10148000DA015C016D0101504301800E911C80E383
:10149000F80EC601B5012AE030E040E050E035D555
:1014A000F61AF401F082A114B104C104D104F9F6D2
:1014B00008C0F601E00FF11D808161E038DF0F5FA9
:1014C00004C06E010894C11CD11C0A3090F32A9606
:1014D0000FB6F894DEBF0FBECDBFCF91DF910F9155
:1014E000FF90DF90CF90BF90AF909F908F907F90B4
:1014F0006F900895EF92FF920F931F937B018C01E1
:1015000097FF0BC010950095F094E094E11CF11C3E
:10151000011D111D8DE261E00ADFC801B7018CDFFA
:101520001F910F91FF90EF900895E4CF0895CF930E
:10153000DF93EC0103C061E0FADE2196FE018491A5
:101540008823C9F7DF91CF910895F1CF0895CF9304
:10155000DF93EC0103C0219661E0E9DE88818823F6
:10156000D1F7DF91CF910895F2CF089561E0DFCEFA
:10157000FDCF0895EF92FF920F931F93CF93DF93C8
:101580007C01062F10E0E3E0000F111FEA95E1F760
:10159000C0E0D0E09E01200F822F8064F3DEF701CF
:1015A000EC0FFD1FE4918E2F61E0C1DE2196C83063
:1015B000D10581F7CDB7DEB7E6E052C5DBCF0895A0
:1015C000282F883068F481E090E002C0880F991FCE
:1015D0002A95E2F7282FAAE2B0E0EBE2F0E029C07A
:1015E0008E3080F430E02850304081E090E002C03E
:1015F000880F991F2A95E2F7282FA4E2B0E0E5E2D0
:10160000F0E017C0853130F020E0A0E0B0E0E0E08D
:10161000F0E00FC030E02E50304081E090E002C09A
:10162000880F991F2A95E2F7282FA7E2B0E0E8E299
:10163000F0E06F3F19F48081822709C0662319F01A
:101640008081822B04C09081822F809589238083A2
:101650008C91822B8C930895E0EBF0E083EF8083F4
:10166000808184BDE1EBF0E082E08083808185BDF4
:10167000E4EBF0E010828081E3EBF0E08083808196
:1016800088BD88B587BD86E060E09ADF85E060E0D0
:1016900097DF8BE060E094DF83E060E091CF8091A2
:1016A0003302882321F481E080933302D5CF08955B
:1016B000CF93DF93EC01F3DFD7FD02C020E004C03D
:1016C000D095C195DF4F21E0CE01CF3FD10519F074
:1016D00014F08FEF90E0222319F018BC87BD02C0F0
:1016E00088BD17BCDF91CF910895CF93DF93EC01B4
:1016F000D6DFD7FD02C020E004C0D095C195DF4FF2
:1017000021E0CE01CF3FD10519F014F08FEF90E02A
:10171000222329F01092B4008093B30004C0809378
:10172000B4001092B300DF91CF9108950F931F93EF
:101730008B01BEDFC801D9DF1F910F910895F6CF4D
:101740000895282F80913402882391F481E08093BA
:10175000340284B18D7C84B985B1826385B981E01E
:1017600090E06F9364E06A95F1F76F910197C9F784
:1017700083B18095822308951F920F920FB60F9226
:1017800011242F933F934F938F939F93AF93BF93C6
:101790002091390230913A02C90180509C4F9093B8
:1017A0003A028093390280519742C8F08091350205
:1017B00090913602A0913702B09138020196A11D96
:1017C000B11D8093350290933602A0933702B093F7
:1017D00038022051334230933A0220933902BF91AC
:1017E000AF919F918F914F913F912F910F900FBE8D
:1017F0000F901F90189528EE33E009C0F9016F9300
:1018000064E06A95F1F76F913197C9F701970097F6
:10181000A9F7089528EE33E009C0F9016F9364E059
:101820006A95F1F76F913197C9F701970097A9F77A
:101830000895A0E7B0E08C918E7F8C93E0EBF0E010
:10184000808183608083E1EBF0E08081807F808312
:10185000808182608083B89A8C9181608C93789427
:10186000089580913B02882321F481E080933B021C
:10187000E0CF0895F6DFE0E7F0E080818E7F80839F
:101880002091350230913602409137025091380252
:10189000808181608083B901CA010895E2DFE0E7B9
:1018A000F0E080818E7F80831092350210923602A4
:1018B000109237021092380210923A0210923902B6
:1018C000B89A808181608083089508958CE392E0C6
:1018D00002C39C01462F8CE392E0B90163C20F93CF
:1018E000DF93CF9300D000D00F92CDB7DEB79C012D
:1018F000962FDE011196EBE1F1E085E001900D926B
:101900008150E1F7BE016F5F7F4F992329F08CE38F
:1019100092E045E00FEF04C08CE392E045E003E184
:1019200079D08CE392E05ED0B9DF0F900F900F90EA
:101930000F900F90CF91DF910F91089560E0CFCF7E
:10194000FC01118210821382128215821482178286
:101950001682613118F080E1808701C06087208B9A
:10196000483078F481E090E002C0880F991F4A95D2
:10197000E2F781878BE290E0938782878AE290E0AA
:1019800029C04E3098F4242F30E02850304081E0B8
:1019900090E002C0880F991F2A95E2F7818785E2BF
:1019A00090E09387828784E290E014C04431A8F4E9
:1019B000242F30E02E50304081E090E002C0880FAC
:1019C000991F2A95E2F7818788E290E093878287C2
:1019D00087E290E09587848708951586148613869C
:1019E00012860895DC011C96ED91FC911D973097AD
:1019F00081F0808119969C911997892B80831A9682
:101A0000ED91FC911B97908119968C91809589237B
:101A100080830895A0E0B0E0EFE0FDE0FDC2EC01BE
:101A20006B01642F7901402F20E08ADFCE018F5BAC
:101A30009F4FFC011082FE01EE5BFF4F1082DE0122
:101A4000AD5BBF4F1C92FF86EE8630E041E050E078
:101A50007F0166E2662E712C8C0123E2822E912C8E
:101A6000BD0199E2A92EB12C58C0A32FB0E0F60118
:101A7000EA0FFB1F80818830C0F4FA0102C0EE0F2C
:101A8000FF1F8A95E2F7CF01FE01EA0FFB1F818B52
:101A9000FB012081282B2083AA0FBB1FAC0FBD1F89
:101AA0009296BC92AE92919737C08E30D0F490E06F
:101AB0000897FA0102C0EE0FFF1F8A95E2F7CF01E7
:101AC000FE01EA0FFB1F818BF8012081282B208368
:101AD000AA0FBB1FAC0FBD1F92969C928E9291973E
:101AE0001BC08431C8F490E00E97FA0102C0EE0FDB
:101AF000FF1F8A95E2F7CF01FE01EA0FFB1F818BE2
:101B0000F7012081282B2083AA0FBB1FAC0FBD1F1C
:101B100092967C926E9291973F5F8885381708F471
:101B2000A4CFCDB7DEB7EEE093C2A0E0B0E0EAE923
:101B3000FDE074C2EC015B01CF5BDF4F4991A991DD
:101B40008880C354D04090E009C0E92FF0E0EE0F48
:101B5000FF1FEA0DFB1D118210829F5F8885981779
:101B6000A0F384B1CF5BDF4F3991832B84B987B168
:101B70002991822B87B98AB19881C354D040892B8F
:101B80008AB985B1832B85B988B1822B88B98BB18D
:101B9000892B8BB9EAE0F0E06F9364E06A95F1F786
:101BA0006F913197C9F784B13095832384B987B198
:101BB0002095822387B98AB1909589238AB985B106
:101BC000382335B988B1282328B98BB198239BB91C
:101BD0009090B000C090B1008091B000836080937D
:101BE000B00082E08093B100D090B20060E070E07D
:101BF0003AC05091B2005D19650F711DE3B0E41653
:101C000009F04FC0F6B0FA1609F04BC089B188153B
:101C100009F047C025C0A42FB0E09D01220F331F5B
:101C20008501020F131FF80180819181892BA1F496
:101C30002C0F3D1FF90181A192A1FC01208130E010
:101C4000AC0FBD1F51968C9190E028233923232B94
:101C500019F4F801718360834F5F88854817D8F2C3
:101C6000D50E4E2DAF2D8E859F856817790708F20A
:101C70009092B000C092B10020E00FC0E22FF0E0DF
:101C8000EE0FFF1FEA0DFB1D80819181892B21F44E
:101C90008E859F85918380832F5F8885281770F3B9
:101CA00005C0E3B0F6B089B040E0D7CFCDB7DEB71E
:101CB000ECE0D0C1A0E0B0E0EFE5FEE0B3C1EC01A4
:101CC0008B01D0907C00E0907A00C7B0F8B0809192
:101CD0007A0086FDFCCF90E009C0E92FF0E0EE0F1E
:101CE000FF1FE00FF11F118210829F5F88859817F8
:101CF000A0F397B18AA18095982397B998B18923C9
:101D000088B987E880937A0050E024C0FE01E40F90
:101D1000F11D818980937C0080917A00806480939A
:101D20007A0080917A0086FDFCCFE42FF0E0EE0F80
:101D3000FF1FE00FF11F2091780030917900808122
:101D40009181820F931F918380834F5F888548170D
:101D5000E8F25F5F89A1581710F040E016C040E03C
:101D6000F5CFE42FF0E0EE0FFF1FE00FF11F69A1A8
:101D7000862F90E09595879520813181820F931F62
:101D800070E0E2D0718360834F5F8885481748F325
:101D9000D0927C00E0927A00F8B8C7B8CDB7DEB731
:101DA000E8E05CC1A0E2B0E0E7EDFEE03AC18C0102
:101DB0007B01D42E842F81508230B0F4D8011C9640
:101DC000ED91FC911D97309779F0808119969C9147
:101DD0001997892B80831A96ED91FC911B9780812E
:101DE00019969C91892B8083F8018089882339F585
:101DF000C02EB12EC801B70198DED8011C96ED9116
:101E0000FC911D97309781F0808119969C911997CC
:101E1000892B80831A96ED91FC911B9790811996DE
:101E20008C91809589238083B2E0DB1609F050C045
:101E30008C2D9B2DBE016F5F7F4F77DE25C0C02E9E
:101E4000B12EC801B70136DFD8011C96ED91FC9187
:101E50001D97309781F0808119969C911997892B55
:101E600080831A96ED91FC911B97908119968C9125
:101E7000809589238083B2E0DB1651F58C2D9B2D54
:101E8000BE016F5F7F4F16DF40E0BE016F5F7F4F87
:101E90001AC0E42FF0E0EE0FFF1F6701CE0EDF1E29
:101EA000E60FF71FD8011E962D913C911F97808158
:101EB0009181281B390BF60180819181820F931F3C
:101EC000918380834F5FD80118968C91481708F34F
:101ED000A096E9E0C2C0CF93DF93EC018A819B8199
:101EE000009709F05ED98E819F81009709F059D93A
:101EF00088819981009709F054D98C819D81009740
:101F000009F04FD9DF91CF910895629FD001739F5F
:101F1000F001829FE00DF11D649FE00DF11D929F85
:101F2000F00D839FF00D749FF00D659FF00D9927C4
:101F3000729FB00DE11DF91F639FB00DE11DF91FE8
:101F4000BD01CF0111240895AA1BBB1B51E107C09D
:101F5000AA1FBB1FA617B70710F0A61BB70B881F39
:101F6000991F5A95A9F780959095BC01CD010895C8
:101F700097FB092E07260AD077FD04D0E5DF06D0AF
:101F800000201AF4709561957F4F0895F6F79095AB
:101F900081959F4F0895A1E21A2EAA1BBB1BFD013C
:101FA0000DC0AA1FBB1FEE1FFF1FA217B307E40738
:101FB000F50720F0A21BB30BE40BF50B661F771F90
:101FC000881F991F1A9469F7609570958095909570
:101FD0009B01AC01BD01CF01089597FB092E052699
:101FE0000ED057FD04D0D7DF0AD0001C38F450952E
:101FF0004095309521953F4F4F4F5F4F0895F6F72D
:1020000090958095709561957F4F8F4F9F4F089564
:102010002F923F924F925F926F927F928F929F92F8
:10202000AF92BF92CF92DF92EF92FF920F931F93E6
:10203000CF93DF93CDB7DEB7CA1BDB0B0FB6F89497
:10204000DEBF0FBECDBF09942A88398848885F84D7
:102050006E847D848C849B84AA84B984C884DF8048
:10206000EE80FD800C811B81AA81B981CE0FD11D2C
:102070000FB6F894DEBF0FBECDBFED010895EE0F91
:10208000FF1F0590F491E02D099411E0CEEED1E010
:1020900003C0FE01F6DF2296C03FD107D1F7F894C6
:0220A000FFCF70
:1020A2005072657373204200320020000102030463
:1020B2000506FF20202020202020200E0F101112C4
:1020C20000000000000000000001020203030303FD
:1020D20004040404040404040505050505050505B6
:1020E2000505050505050505060606060606060696
:1020F200060606060606060606060606060606067E
:102102000606060606060606070707070707070765
:10211200070707070707070707070707070707074D
:10212200070707070707070707070707070707073D
:10213200070707070707070707070707070707072D
:102142000707070707070707080808080808080815
:1021520008080808080808080808080808080808FD
:1021620008080808080808080808080808080808ED
:1021720008080808080808080808080808080808DD
:1021820008080808080808080808080808080808CD
:1021920008080808080808080808080808080808BD
:1021A20008080808080808080808080808080808AD
:1021B200080808080808080808080808080808089D
:0E21C200080808080808080820008402000029
:00000001FF
